S00B00006361722E73726563E3
S11300000C942A000C943F000C943F000C943F0085
S11300100C943F000C943F000C943F000C943F0060
S11300200C943F000C943F000C943F000C943F0050
S11300300C943F000C943F000C943F000C943F0040
S11300400C943F000C943F000C943F000C943F0030
S11300500C943F0011241FBECFE5D8E0DEBFCDBF16
S113006010E0A0E6B0E0EAE3F2E002C005900D92F1
S1130070A236B107D9F70E94DB000C941B010C9443
S11300800000982F9695969596958770913021F15A
S113009030F09230F1F1933009F458C00895613092
S11300A069F44BB321E030E0B90102C0660F771F59
S11300B08A95E2F7CB01842B8BBB08954BB321E0E7
S11300C030E0B90102C0660F771F8A95E2F7CB01D1
S11300D0809584238BBB0895613069F448B321E093
S11300E030E0B90102C0660F771F8A95E2F7CB01B1
S11300F0842B88BB089548B321E030E0B90102C0E5
S1130100660F771F8A95E2F7CB018095842388BB1D
S11301100895613069F445B321E030E0B90102C0CB
S1130120660F771F8A95E2F7CB01842B85BB089570
S113013045B321E030E0B90102C0660F771F8A950C
S1130140E2F7CB018095842385BB0895613069F47F
S113015042B321E030E0B90102C0660F771F8A95EF
S1130160E2F7CB01842B82BB089542B321E030E057
S1130170B90102C0660F771F8A95E2F7CB0180951B
S1130180842382BB0895813041F028F0823039F015
S1130190833039F008959ABB089597BB089594BBB2
S11301A0089591BB089580E487BB8DB90895779B2A
S11301B0FECF8FB1089580916000909161000E94FC
S11301C0C3000E94D3000E94D7000E94E800FBCF26
S11301D0813071F0F8F08630A1F0883059F561E093
S11301E088E10E94410061E08AE10E944100089593
S11301F061E089E10E94410061E08BE10E944100DD
S1130200089561E088E10E94410061E08BE10E9471
S11302104100089560E088E10E94410060E089E1C6
S11302200E94410060E08AE10E94410060E08BE1AD
S10D02300E9441000895F894FFCFE6
S105023A03FFBC
S9030000FC
