:100000000C942A000C943F000C943F000C943F0089
:100010000C943F000C943F000C943F000C943F0064
:100020000C943F000C943F000C943F000C943F0054
:100030000C943F000C943F000C943F000C943F0044
:100040000C943F000C943F000C943F000C943F0034
:100050000C943F0011241FBECFE5D8E0DEBFCDBF1A
:1000600010E0A0E6B0E0E4E0F1E002C005900D92FF
:10007000A236B107D9F70E9441000C9480000C947D
:10008000000080916000909161000E9467000E94D2
:10009000770083E00E9455000E947C008FE39FE17F
:1000A0000197F1F700C00000F4CF813041F028F053
:1000B000823039F0833039F008C089B3089586B3AF
:1000C000089583B3089580B3089580E00895813042
:1000D00041F028F0823039F0833039F008959ABB2E
:1000E000089597BB089594BB089591BB089580EB44
:1000F00087BB81E58DB908958FB9779BFECF0895B1
:04010000F894FFCFA1
:020104000300F6
:00000001FF
